:020000040800F2
:10800000680302200D8200086D1E010887CB00085E
:108010004D040108D9840008654E010800000000E5
:10802000000000000000000000000000552B0108C7
:10803000CF9A000800000000BD200108B9330108F4
:10804000278200082782000827820008278200086C
:10805000278200082782000827820008278200085C
:10806000278200082782000827820008278200084C
:10807000278200082782000827820008278200083C
:1080800099930008278200082782000827820008A9
:10809000278200082782000827820008CD9F000859
:1080A000278200082782000827820008278200080C
:1080B000278200086535010827820008278200080A
:1080C00027820008278200082782000827820008EC
:1080D00027820008794C0108854C01082782000896
:1080E00027820008278200082782000827820008CC
:1080F00027820008278200082782000827820008BC
:1081000027820008278200082782000827820008AB
:10811000278200082782000871350108278200089D
:108120002782000827820008A593000827820008FC
:10813000278200082782000827820008278200087B
:10814000278200082782000827820008278200086B
:108150002782000827820008B193000827820008C0
:10816000278200082782000827820008278200084B
:1081700027820008278200082782000800000000EC
:10818000278200082782000827820008278200082B
:10819000278200082782000827820008278200081B
:1081A000278200082782000827820008278200080B
:1081B00027820008278200082782000827820008FB
:1081C000278200082782000800000000278200089C
:1081D00027820008278200082782000827820008DB
:1081E00027820008278200082782000827820008CB
:1081F0002782000827820008DFF80CD000F07EF804
:1082000000480047E96601086803022006488047E5
:1082100006480047FEE7FEE7FEE7FEE7FEE7FEE76B
:10822000FEE7FEE7FEE7FEE771340108F98100088A
:108230002DE9F05F0546002092469B46884606469B
:10824000814640241BE0284641464746224600F02E
:1082500045F853465A46C01A914110D31146184664
:10826000224600F02CF82D1A67EB01084F462246F3
:108270000120002100F023F817EB00094E41201ED9
:10828000A4F10104DFDC484631462A464346BDE8F6
:10829000F09F002800DA40427047D2B201E000F8B7
:1082A000012B491EFBD270470022F6E710B513469A
:1082B0000A4604461946FFF7F0FF204610BD202A63
:1082C00004DB203A00FA02F1002070479140C2F12D
:1082D000200320FA03F3194390407047202A04DB5F
:1082E000203A21FA02F00021704721FA02F3D0402F
:1082F000C2F120029140084319467047064C074DD1
:1083000006E0E06840F0010394E807009847103465
:10831000AC42F6D3FFF774FF3871010858710108B9
:1083200070B58C1810F8015B15F0070301D110F837
:10833000013B2A1106D110F8012B03E010F8016B64
:1083400001F8016B5B1EF9D12B0705D40023521EE7
:108350000DD401F8013BFAE710F8013BCB1A921C4F
:1083600003E013F8015B01F8015B521EF9D5A1424D
:10837000D8D3002070BD0000064808B5816909689F
:10838000009100F11C01D0E903324069C9680DF089
:1083900093FF08BD30CE01200249A1F11C000DF071
:1083A0007DBE00004CCE0120054910B5A1F11C0096
:1083B0000EF03CF9024900201C390969087010BD13
:1083C0004CCE012070B5224CE068417800293DD1A7
:1083D00004F11C02516801F5005191F8501A00296E
:1083E00034D1012141701B480025E1684068486094
:1083F00019481A4990ED040AE06880ED020A91EDEF
:10840000060AE068B7EEC00A80ED040B91ED050A9C
:10841000E068B7EEC00A80ED060B91ED070A80ED2B
:10842000080A91ED0C0A80ED090A91ED0B0A80ED26
:108430000A0A91ED0D0A80ED0B0A4570E06805709F
:108440005168E0680EF086FAE068457070BD000083
:1084500030CE012060CF012074D2012008CF01204E
:1084600010B5194C2069017800292BD141780029D9
:1084700028D1216891F88019002923D10121417068
:10848000124890ED040A206980ED010A1048216924
:1084900090ED000A81ED020A216990ED010A81ED5B
:1084A000030A90ED020A206980ED040A20699FED1D
:1084B000090A80ED050A216820690EF0BEFA2169DB
:1084C0000020487010BD000030CE012074D2012081
:1084D00004E4012000000000FEE70000F0B50346C0
:1084E0000D461446002200200021164E36781E54F8
:1084F0001E5C0E44F1B2401C124E76781E541E5C77
:108500000E44F1B2401C00BF09E0AF5C961C9F55C1
:108510001E5C0E44F1B2461CB0B2561CB2B2022A26
:10852000F3DB26121E541E5C0E44F1B2461CB0B2A0
:108530001C541E5C0E44F1B2461CB0B21954461CC9
:10854000B0B2F0BD847C012000B51E2000F002F81E
:1085500000BD000030B500BF00BF00EBC00404EB5D
:108560004024244D05EB8404B4F80448A31FDC1711
:1085700003EB9474C4F38F0200EBC00303EB4023BE
:108580002C4604EB83031B7900EBC00404EB40246E
:1085900005EB840484F8063800EBC00303EB4023AA
:1085A0002C4604EB830303F20443134C236000EBDB
:1085B000C00303EB40232C4604EB8303DB1D0F4C6D
:1085C0002360002111E00D4B1B681B780A4C2468C6
:1085D0002370094B1B685B1C074C2360074B1B680F
:1085E0005B1C064C23604B1C99B2B1EB820FEADB9B
:1085F00030BD0000E06F0020A8620020AC620020C7
:10860000704700B50420FFF7A5FF00BD00B50620A8
:10861000FFF7A0FF00BD00B50720FFF79BFF00BDDF
:1086200000B50120FFF796FF00BD00B50320FFF75E
:1086300091FF00BD00B50220FFF78CFF00BD00B523
:108640000520FFF787FF00BD10B51820FFF782FF58
:108650000CF01EFB10BD000010B504462046FFF7CD
:1086600079FF04EBC40101EB4421084A02EB8101CC
:10867000B1F80418881FC11700EB9171C1F38F0284
:10868000A4F10801024B23F8312010BDE06F002057
:10869000FC7C012000B51120FFF7DEFF00BD00B516
:1086A0001220FFF7D9FF00BD00B51320FFF7D4FF5C
:1086B00000BD00B51420FFF7CFFF00BD00B51520A9
:1086C000FFF7CAFF00BD00B51620FFF7C5FF00BDCC
:1086D00000B50820FFF7C0FF00BD00B50920FFF777
:1086E000BBFF00BD00B50A20FFF7B6FF00BD00B517
:1086F0000B20FFF7B1FF00BD00B50C20FFF7ACFF6A
:1087000000BD00B50D20FFF7A7FF00BD00B50E208E
:10871000FFF7A2FF00BD00B50F20FFF79DFF00BDD2
:1087200000B51020FFF798FF00BD00000248007957
:10873000014981F8060870476074012002480079F9
:10874000014981F806087047D0530120024800799A
:10875000014981F806087047F45B012000B5172035
:10876000FFF7F8FE00BD00002DE9F04F03468C46F0
:1087700090460024002200210020002500BFB8F10F
:10878000070F7CD2DFE808F00486FDFCFBFAF90055
:10879000DFF8049A99F8069003F8019013F8019015
:1087A0004A4401F101091FFA89F1DFF8EC9999F8BF
:1087B000079003F8019013F801904A4401F1010970
:1087C0001FFA89F1DFF8D49999F818904FF0040A4C
:1087D0000AEB890903F8019013F80190914409F01C
:1087E000FF0201F101091FFA89F1DFF8B499CCEB1E
:1087F0000C1A0AEB0C2ADFF8ACB90BEB8A0ACAF8A0
:108800003894002436E0CCEB0C1909EB0C29DFF886
:1088100094A90AEB8909D9F8389499F8009003F8DB
:108820000190CCEB0C1909EB0C290AEB8909D9F85A
:10883000389499F80090914409F0FF02CCEB0C19A0
:1088400009EB0C290AEB8909D9F8389409F10109D7
:10885000CCEB0C1A0AEB0C2ADFF848B90BEB8A0AAE
:10886000CAF8389401F101091FFA89F104F10109EC
:108870001FFA89F4DFF8249999F8189000E076E25D
:10888000B4EB890FBFDB5A5401F101091FFA89F1DA
:1088900008466CE2DFF8009999F8069003F8019019
:1088A00013F801904A4401F101091FFA89F1DFF838
:1088B000E89899F8079003F8019013F801904A445A
:1088C00001F101091FFA89F1DFF8D09899F81890A1
:1088D0004FF0040A0AEB890903F8019013F801909C
:1088E000914409F0FF0201F101091FFA89F1DFF853
:1088F000B098CCEB0C1A0AEB0C2ADFF8A8B80BEBFB
:108900008A0ACAF83894002436E0CCEB0C1909EB3B
:108910000C29DFF890A80AEB8909D9F8389499F85E
:10892000009003F80190CCEB0C1909EB0C290AEB31
:108930008909D9F8389499F80090914409F0FF0218
:10894000CCEB0C1909EB0C290AEB8909D9F83894FE
:1089500009F10109CCEB0C1A0AEB0C2ADFF844B838
:108960000BEB8A0ACAF8389401F101091FFA89F160
:1089700004F101091FFA89F404E0D2E2FAE1F8E116
:10898000F6E10DE0DFF8149899F81890B4EB890F30
:10899000BBDB5A5401F101091FFA89F10846F8E3DB
:1089A000DFF8F49799F8069003F8019013F8019016
:1089B0004A4401F101091FFA89F1DFF8DC9799F8BF
:1089C000079003F8019013F801904A4401F101095E
:1089D0001FFA89F14FF0500903F8019013F8019044
:1089E000914409F0FF0201F101091FFA89F1DFF852
:1089F000B097CCEB0C1A0AEB0C2ADFF8A8B70BEBFC
:108A00008A0ACAF8389400241AE0CCEB0C1909EB56
:108A10000C29DFF890A70AEB8909D9F8389419F8DE
:108A2000049003F8019013F80190914409F0FF02BB
:108A300001F101091FFA89F104F101091FFA89F412
:108A4000042CE2DB012431E0DFF8549709EB8409C0
:108A500099ED000ABCEEC00A10EE105AC5F30749A2
:108A600003F8019013F80190914409F0FF0201F11D
:108A700001091FFA89F1C5F3072903F8019013F8DA
:108A80000190914409F0FF0201F101091FFA89F1F7
:108A90005D5413F80190914409F0FF0201F10109BE
:108AA0001FFA89F104F101091FFA89F4072CCBDBC5
:108AB000072426E0DFF8E89609EB840999ED000A1F
:108AC000BCEEC00A10EE109A1FFA89F54FEA15297C
:108AD00003F8019013F80190914409F0FF0201F1AD
:108AE00001091FFA89F15D5413F80190914409F0CE
:108AF000FF0201F101091FFA89F104F101091FFACE
:108B000089F40C2CD6DBDFF8989609F13009CCEB10
:108B10000C1A0AEB0C2ADFF88CB60BEB8A0ACAF89F
:108B2000389400241AE0CCEB0C1909EB0C29DFF87F
:108B300074A60AEB8909D9F8389419F8049003F857
:108B4000019013F80190914409F0FF0201F101092D
:108B50001FFA89F104F101091FFA89F40C2CE2DBF8
:108B60000F2426E0DFF8389609EB840999ED000A16
:108B7000BCEEC00A10EE109A1FFA89F54FEA1529CB
:108B800003F8019013F80190914409F0FF0201F1FC
:108B900001091FFA89F15D5413F80190914409F01D
:108BA000FF0201F101091FFA89F104F101091FFA1D
:108BB00089F4112CD6DBDFF8E89509F14409CCEBF8
:108BC0000C1A0AEB0C2ADFF8DCB50BEB8A0ACAF8A0
:108BD000389400241AE0CCEB0C1909EB0C29DFF8CF
:108BE000C4A50AEB8909D9F8389419F8049003F858
:108BF000019013F80190914409F0FF0201F101097D
:108C00001FFA89F104F101091FFA89F4082CE2DB4B
:108C1000132426E0DFF8889509EB840999ED000A12
:108C2000BCEEC00A10EE109A1FFA89F54FEA15291A
:108C300003F8019013F80190914409F0FF0201F14B
:108C400001091FFA89F15D5413F80190914409F06C
:108C5000FF0201F101091FFA89F104F101091FFA6C
:108C600089F4172CD6DBDFF8389509F15C09CCEBD9
:108C70000C1A0AEB0C2ADFF82CB50BEB8A0ACAF89F
:108C8000389400241AE0CCEB0C1909EB0C29DFF81E
:108C900014A50AEB8909D9F8389419F8049003F857
:108CA000019013F80190914409F0FF0201F10109CC
:108CB0001FFA89F104F101091FFA89F4042CE2DB9F
:108CC000182426E0DFF8D89409EB840999ED000A0E
:108CD000BCEEC00A10EE109A1FFA89F54FEA15296A
:108CE00003F8019013F80190914409F0FF0201F19B
:108CF00001091FFA89F15D5413F80190914409F0BC
:108D0000FF0201F101091FFA89F104F101091FFABB
:108D100089F41B2CD6DBDFF8889499ED1B0ABCEE96
:108D2000C00A10EE109A03F8019013F801909144D4
:108D300009F0FF0201F101091FFA89F1DFF86094DF
:108D400099ED1C0ABCEEC00A10EE109A03F80190CF
:108D500013F80190914409F0FF0201F101091FFA93
:108D600089F15A5401F101091FFA89F1084610E20C
:108D70000FE20EE2DFF8209499F8069003F80190D4
:108D800013F801904A4401F101091FFA89F1DFF853
:108D9000089499F8079003F8019013F801904A4459
:108DA00001F101091FFA89F14FF0500903F8019010
:108DB00013F80190914409F0FF0201F101091FFA33
:108DC00089F1DFF8DC93CCEB0C1A0AEB0C2ADFF804
:108DD000D4B30BEB8A0ACAF8389400241AE0CCEB1F
:108DE0000C1909EB0C29DFF8BCA30AEB8909D9F8A7
:108DF000389419F8049003F8019013F80190914405
:108E000009F0FF0201F101091FFA89F104F10109DA
:108E10001FFA89F4102CE2DB042431E0DFF88093A0
:108E200009EB840999ED000ABCEEC00A10EE105A55
:108E3000C5F3074903F8019013F80190914409F034
:108E4000FF0201F101091FFA89F1C5F3072903F8AF
:108E5000019013F80190914409F0FF0201F101091A
:108E60001FFA89F15D5413F80190914409F0FF0253
:108E700001F101091FFA89F104F101091FFA89F4CE
:108E8000072CCBDB072426E0DFF8149309EB8409D9
:108E900099ED000ABCEEC00A10EE109A1FFA89F58F
:108EA0004FEA152903F8019013F80190914409F055
:108EB000FF0201F101091FFA89F15D5413F80190D5
:108EC000914409F0FF0201F101091FFA89F104F14F
:108ED00001091FFA89F4122CD6DB122418E0DFF8FE
:108EE000C09209EB840999ED000ABCEEC00A10EEAD
:108EF000109A03F8019013F80190914409F0FF02D1
:108F000001F101091FFA89F104F101091FFA89F43D
:108F10002F2CE4DB5A5401F101091FFA89F10846AC
:108F200037E1DFF8749299F8069003F8019013F88E
:108F30000190914409F0FF0201F101091FFA89F142
:108F4000DFF8549299F8079003F8019013F8019014
:108F5000914409F0FF0201F101091FFA89F14FF074
:108F6000500903F8019013F80190914409F0FF02B1
:108F700001F101091FFA89F1002400E11B2C56D2EE
:108F8000DFE804F00E565758595A5B898A8B8C8D4E
:108F9000AEAF8EB0B15C5D5E5FB2608F90E8E9000D
:108FA000DFF8F891D9F82479D9F820695F5413F8DB
:108FB0000190914409F0FF0201F101091FFA89F1C2
:108FC0004FEA166949EA072903F8019013F801905E
:108FD000914409F0FF0201F101091FFA89F14FEAFA
:108FE000164949EA074903F8019013F801909144A2
:108FF00009F0FF0201F101091FFA89F14FEA162970
:1090000049EA076903F8019013F80190914409F0C7
:10901000FF0201F101091FFA89F15E5413F8019072
:10902000914409F0FF0201F101091FFA89F1A1E061
:1090300000BF00BF00BF00BF00BF00BF00BF00BF38
:1090400000BF00BFDFF8609159F83450C5F30749FD
:1090500003F8019013F80190914409F0FF0201F127
:1090600001091FFA89F1C5F3072903F8019013F8E4
:109070000190914409F0FF0201F101091FFA89F101
:109080005D5413F80190914409F0FF0201F10109C8
:109090001FFA89F16EE000BF00BF00BF00BF00BF34
:1090A00000BF00BFDFF8009139F834901FFA89F54E
:1090B0004FEA152903F8019013F80190914409F043
:1090C000FF0201F101091FFA89F15D5413F80190C3
:1090D000914409F0FF0201F101091FFA89F149E009
:1090E00000BF00BF00BF00BFDFF8BC9059F834508C
:1090F0004FEA156903F8019013F80190914409F0C3
:10910000FF0201F101091FFA89F1C5F3074903F8CC
:10911000019013F80190914409F0FF0201F1010957
:109120001FFA89F1C5F3072903F8019013F801909C
:10913000914409F0FF0201F101091FFA89F15D5420
:1091400013F80190914409F0FF0201F101091FFA9F
:1091500089F10FE000BFDFF8509019F834505D54EA
:1091600013F80190914409F0FF0201F101091FFA7F
:1091700089F100BF00BF04F101091FFA89F41B2C1B
:10918000FFF6FCAE5A5401F101091FFA89F10846B5
:1091900000BF00BFBDE8F08F847C0120D8570020BD
:1091A000F45C002060650020F860002000B51A2003
:1091B000FFF7D0F900BD00B51A20FFF7CBF900BDCD
:1091C00010B50B490968D1F81008804708480068B5
:1091D00090F8070820B906490968D1F814088047B3
:1091E0000348006890F8190808B90BF079FA10BD27
:1091F0000800002000203349C979334A11703349EF
:10920000334A1160A1F57F71324A116000BF11E04D
:109210003049096809782E4A126811702C4909688A
:10922000491C2B4A11602B490968491C294A1160C5
:10923000411C88B20C28EBDB2449091F91ED010A7F
:10924000214981ED010A214991ED010A1E4981ED73
:10925000020A1E4991ED020A1B4981ED030A1949D0
:10926000097D194A11741749497D51741549897D41
:1092700091741146897C0C2901DD0C2191741149EE
:10928000C97D114AD1740F49097E11750D49497E76
:1092900051750C49897E91750A49C97ED175094974
:1092A000097F1176002008E000F11B01054A921C9D
:1092B000525C09490A54411C88B20349097E814223
:1092C000F2DC7047E06F0020D8570020E4730020E4
:1092D000A8620020AC620020F45B002010B51920C9
:1092E000FFF738F901494868804710BD0C0000209D
:1092F0001E484FF4806110B5214B224CA0F8201479
:109300001B4991ED020A1B49BCEEC00A80ED000A20
:10931000C0F828141849C0F824141849C0F82C14AF
:10932000012180F83314002280F834244FF4E13214
:1093300083ED000AA0F85C18C0F86448124CC0F82D
:109340003C24C0F86048114CC0F8684880F86F1899
:1093500000F678005A600E4AC160416001650264FF
:1093600081640C49C0F8841010BD000060650020C5
:10937000D857002055DF0008F1E1000889CB00082C
:1093800000000020F5E1000805E20008E5CB000838
:1093900009DE000885DE0008014801F0BDBB0000C1
:1093A000A0D50120014801F0B7BB000040D5012045
:1093B000014801F0B1BB0000E0D40120016818238E
:1093C000CAB2103AB2FBF3F2054B6FF30901032A5C
:1093D0009B5CC36500D9091D816508467047000084
:1093E000046F0108014610B500208B694FF0C0746E
:1093F0008A6A53B1B3F5005F15D072B1012A0CD05F
:10940000022A0AD0032A09D104E01AB1012A06D09F
:10941000022A03D1C96AC90100D5012010BDC96A59
:10942000A142FAD010BD002AF7D0012AF2D0022AB8
:10943000F3D0032AF3D010BD30B50468256825F4B5
:1094400080252560046863608368402B036803D02F
:1094500099600068C26030BD9A600068C16030BD2C
:109460002DE9F04FDFF8F8C35523FE4A4FF0AA0963
:10947000FD491124DCF80000C2F80C08002082F835
:109480000708137082F80190C2F8101882F81808C3
:10949000F64982F81908C2F81418DCF80410C2F86A
:1094A0002018F349DCF810600E6001F8050C82F812
:1094B000243882F82548EF4A4A6001220A7348732B
:1094C000ED4D12228D601327DCF81440C1F824689A
:1094D0004C6181F81F080B764A76E84AC1F82828C3
:1094E000022281F83028A21C81F83108C1F82C58DA
:1094F000C1F83828E24A166002F8050C81F83C38B9
:1095000081F83D78DF49516003211173211D5073AB
:10951000C2F8246895605161142182F81F081376FF
:109520005176D949C2F82818042182F83018A11DB3
:1095300082F83108C2F82C58C2F838181527D349D8
:109540004FF0170A4FF0200B4FF021080E6001F882
:10955000050C82F83C3882F83D78CD4A4A600522F5
:109560000A7304F108024873C1F824688D604A61E7
:10957000162281F81F080B764A76C64AC1F82828B9
:10958000062281F8302804F10A0281F831080C34EF
:10959000C1F82C58C1F83828BF4AC24F166002F8EB
:1095A000050C81F83C3881F83DA8BC495160072181
:1095B0001173507395605461DCF82050C2F8245840
:1095C00082F81F081376B64982F819B0C2F8281835
:1095D000082182F83018B44982F83108C2F82C7892
:1095E000DCF82440C2F838480D6001F8050C82F818
:1095F0003C3882F83D88AD4A4A6009220A73A21CB1
:1096000048738F60C1F824584A61222281F81F08EC
:109610000B764A764FF02308A54AC1F828280A227B
:1096200081F83028221D81F83108C1F82C78C1F862
:109630003828A04A156002F8050C81F83C3881F8FA
:109640003D884FF025089C4951600B211173A11DE5
:1096500050739760C2F824585161242182F81F0882
:10966000137651769549C2F828180C2182F83018E3
:1096700004F1080182F83108C2F82C78C2F83818D1
:109680008F490D6001F8050C82F83C3882F83D885E
:109690004FF027088B4A4A600D220A7304F10A0230
:1096A00048738F60C1F824584A61262281F81F0848
:1096B0000B764A76844AC1F828280E2281F8302891
:1096C00004F10C0281F83108C1F82C78C1F838286F
:1096D0007E4A156002F8050C81F83C3881F83D8817
:1096E0007B4951600F21117304F10E015073976093
:1096F0004FF02908C2F824585161282182F81F0828
:10970000137651767349C2F82818102182F8301860
:1097100004F1100182F83108C2F82C78C2F8381828
:109720006D490D6001F8050C82F83C3882F83D88DF
:109730004FF02B08694A4A6011220A7304F11202A1
:1097400048738F60C1F824584A612A2281F81F08A3
:109750000B764A76624AC1F82828122281F830280E
:1097600004F1140281F83108C1F82C78C1F83828C6
:109770005C4A156002F8050C81F83C3881F83D8898
:109780004FF02D08584951601321117304F116014F
:1097900050739760C2F8245851612C2182F81F0839
:1097A000137651765149C2F82818142182F83018DE
:1097B00004F1180182F83108C2F82C78C2F8381880
:1097C0004B490D6001F8050C82F83C3882F83D8861
:1097D000484A4A6015220A7304F11A0248738F60DE
:1097E000C1F824582F254A612E2281F81F080B76D4
:1097F0004A76414AC1F82828162281F8302804F117
:109800001C0281F831081E34C1F82C78C1F83828C0
:109810003A4A166002F8050C81F83C3881F83D5848
:1098200037495160302182F80CA050739760546121
:10983000DCF83060C2F8246882F81F08137651768D
:109840003049C2F82818182182F830182E4D82F8B5
:109850003108C2F82C58DCF834402C4958E000009C
:10986000907C0120E06F0020F59100083131010863
:109870001080002021860008D52B010835860008BD
:10988000589000202B86000803860008A0A0002026
:109890003F8600080D860008E8B000201786000803
:1098A000D1860008A12D010830C10020DB86000808
:1098B000E586000878D10020EF860008F9860008C8
:1098C000C0E10020038700080D87000808F200208F
:1098D000178700082187000850020120958600089C
:1098E0009F86000898120120A9860008B386000808
:1098F000E0220120BD860008C78600082833012029
:109900005D87000849860008ED3101087043012099
:10991000C2F83848A41C0E60012601F8056C3126F7
:1099200082F83C3882F83D68414A4A6019220A733D
:1099300048738D604C616024DCF84060C1F8246895
:1099400081F81F080B764C763A4CC1F8284881F80C
:109950003028394D394F81F83108C1F82C58DCF8DE
:109960004440C1F838483E60612607F8050CA41C45
:1099700081F83C3881F83D683149796031493A7362
:1099800001227873BD6001257C61C2240A7087F8CA
:109990003C382D4A87F83D48C1F809201D224A74F9
:1099A0008D7487F81F58C1253B76284E7D76C7F801
:1099B000286887F83028012287F831281646244A7B
:1099C00082F824687726567711269677214EC2F8BA
:1099D0002D6882F835B882F83608012081F824080D
:1099E00041204B7788771C48C1F82D081E2081F84C
:1099F0003508012081F836081070812081F841383F
:109A000081F842081548C2F809001F20507401204F
:109A1000907402F6410080F8009080F80190037184
:109A200045718370C470837180F80790BDE8F08F32
:109A3000DD920008B7910008692F0108B853012092
:109A4000AD910008FB6301204D8700083D870008A9
:109A5000437401202D87000849850008018600080D
:109A60000F4807220F490823C0E900210121818105
:109A700003614FF0016343618283092202620A4A53
:109A80004262102282850A220263084A4263818769
:109A90000B210164064941640221A0F84C10704773
:109AA000907C012000000C08000014080000180839
:109AB00000001C0810B508F017FF08F0A5FC08F01E
:109AC00077FD08F071FFBDE8104008F045BE704713
:109AD0001549002030B5134A44F224530A60134A52
:109AE0008A60A2F624024A60114ACA6002F6240281
:109AF0000A6102F624024A6102F624028A611C31DC
:109B0000A2F5745200EBC00404EB402401EBC00545
:109B1000401C80B202EB84040F281C446C60F1D31B
:109B200030BD0000087C0020E07C0120508C00202B
:109B3000749400202DE9F0412DED048B00240025C4
:109B400000269FEDFE0AF0EE408A9FEDFC0AB0EE83
:109B5000408A00279FEDF90AB0EE409AF848477C0A
:109B600005F01EFD00BFFCE0072F78DA002F29DB8F
:109B7000F448006800EBC400D0ED000A35206043D3
:109B8000F14901EB0010008800EE100AB8EE400A1F
:109B900030EE600AEB480068012101EB440100EB64
:109BA0008100D0ED000A20EE200A35206043E6490E
:109BB00001EB001080ED010A3520604301EB00103D
:109BC00090ED019A012F3EDBB7EE000AF0EE408ADD
:109BD0009FEDDA0AB0EE408A00251DE03520604393
:109BE000D94901EB001090ED080A20EE280AF0EEAA
:109BF000408AD4484168601C00EB4000801E401B36
:109C000001EB8000D0ED000AB0EE480A08EEA00A91
:109C1000B0EE408A681C85B2022DDFDB3520604340
:109C2000C94901EB001090ED010A3520604301EBBA
:109C3000001080ED020A3520604301EB001090ED2A
:109C4000020AB0EE409A022F43DBB7EE000AF0EEB4
:109C5000408A9FEDBA0AB0EE408A00251EE079E006
:109C600035206043B84901EB001090ED020A20EE68
:109C7000280AF0EE408AB3488168601C00EB40007F
:109C8000801E401B01EB8000D0ED000AB0EE480AB8
:109C900008EEA00AB0EE408A681C85B2022DDFDB18
:109CA000A8488168601C00EB4000401E01EB80006A
:109CB00090ED000A30EE080A35206043A24901EB1E
:109CC000001080ED030A3520604301EB001090ED99
:109CD000039A042F3DDBB7EE000AF0EE408A9FEDB9
:109CE000970AB0EE408A00251DE035206043964972
:109CF00001EB001090ED080A20EE280AF0EE408AF1
:109D000090480169601C00EB4000801E401B01EB85
:109D10008000D0ED000AB0EE480A08EEA00AB0EECE
:109D2000408A681C85B2022DDFDB884800EB840086
:109D300090ED000A20EE080A35206043824901EBCD
:109D4000001080ED050A3520604301EB001090ED16
:109D5000059A00BF7D4800EB840080ED009A601CEE
:109D600084B27748807CA0423FF7FEAE002470E0CA
:109D7000032F6CDB002668E0B7EE000AF0EE408AA5
:109D80009FED6E0AB0EE408A002521E03520604349
:109D90006D4901EB001090ED030A20EE280AF0EE69
:109DA000408A701C00EB400004EB440100EB4100D2
:109DB000801E401B6349C96801EB8000D0ED000A9A
:109DC000B0EE480A08EEA00AB0EE408A681C85B2E0
:109DD000022DDBDB701C00EB400004EB440100EBC8
:109DE0004100401E5749C96801EB800090ED000A10
:109DF00030EE080AB0EE408A554800EB4400805D22
:109E0000524901EB800090ED000A30EE480A5048BC
:109E100000EB4400805D01EB800080ED000A4C48BF
:109E200000EB4400805D01EB800090ED000A4848A3
:109E300000EB4400805D352110FB01F0424901EB4D
:109E4000001080ED040A701C86B2022E94DB601CA8
:109E500084B23B48807CA0428ADC0024A9E0352003
:109E60006043394901EB001090EDD20AF7EE000A89
:109E7000B4EE600AF1EE10FA5FD19FED308A3548FA
:109E800030F8340001B2352060432F4A02EB001055
:109E9000A0F84413002536E0352060432A4901EB41
:109EA00000102430691C00EB810090ED000A352081
:109EB0006043254901EB0010243000EB850080ED64
:109EC000000A3520604301EB0010243000EB8500D0
:109ED000D0ED000A1F4800EBC40041683520604304
:109EE000194A02EB0010B0F94403401B401E01EB7D
:109EF000800090ED001AB0EE480A00EE810AB0EE44
:109F0000408A681C85B2352060430F4901EB001080
:109F1000B0F94403401EA842BEDC0C4800EB8400AC
:109F200090ED000A3520604301EB0010243035210C
:109F30006143054A02EB01110EE038E00000000029
:109F4000D8570020E07C012038000020B8D801203C
:109F5000EC6E0108FC7C0120B1F94413491E00EBB2
:109F6000810080ED000A35206043114601EB0010AE
:109F700024303521614302EB0111B1F94413491E2C
:109F800000EB8100D0ED000A0E4800EBC4004068F1
:109F900090ED001AB0EE480A00EE810AB0EE408A59
:109FA00035206043114601EB001080EDD38A601C20
:109FB00084B20548807CA0423FF751AFBDEC048BD2
:109FC000BDE8F081FC7C0120D85700204FF4807060
:109FD00001F034B8FEE7000040480023404A012168
:109FE000F0B490F88A431068062C12D2DFE804F02F
:109FF0001113334F035A3B4B90ED000A83ED270AB0
:10A0000090ED010A83ED280A90ED020A83ED260AFD
:10A010001173F0BC704790ED000A334E334CB5EE2F
:10A02000C00A334DF1EE10FA03D1337023702B7058
:10A03000EFE710EE103A30489FED2E0AB3F17E5F45
:10A0400007D011732D4A11702170297080ED310AEB
:10A05000DFE73170F8E72A4A90ED000A82ED000A46
:10A06000284A90ED010A82ED000A274A90ED020A83
:10A0700082ED000A254A90ED030A82ED000A90ED78
:10A08000040A234880ED000A22480170C1E790EDE0
:10A09000000AB5EEC00AF1EE10FA01D11371B8E76B
:10A0A0001171B6E790ED000A1B49BCEEC00A10EE34
:10A0B000102A0A8290ED010ABCEEC00A10EE102AA6
:10A0C0004A8290ED020ABCEEC00A10EE100A8882A5
:10A0D0001248D0F88C101A20F0BC0847E03F01204D
:10A0E000A4D8012004FA0120AC640020B064002050
:10A0F000B26400200000000004F00120AE640020E3
:10A10000C0640020C4640020C8640020CC64002027
:10A11000D0640020AD6400202000002010620020E8
:10A120003E4890EDD30A3E48D0ED1D0AB4EEE00A59
:10A13000F1EE10FA10DB3B48007868B93A4890ED30
:10A14000040A3A4880ED000A012039490873087171
:10A15000344908703749087032480078012841D1E5
:10A160003548007830BB304890ED040A334880ED24
:10A17000000A90ED000A2D48D0ED000A30EE600A8A
:10A180002748D0ED1F0AB4EEE00AF1EE10FA12D221
:10A19000224890EDD30A2248D0ED1E0AB4EEE00A20
:10A1A000F1EE10FA1ED201202149087322490870ED
:10A1B0002049087016E0214890ED000A1B48D0EDB8
:10A1C000000A30EE600A1648D0ED1F0AB4EEE00A2D
:10A1D000F1EE10FA06DB01201549087316490870E4
:10A1E0001449087016480078012815D10C4890EDE4
:10A1F000250A0F48D0ED040A30EE200A0A48D0EDB7
:10A20000040AB4EEE00AF1EE10FA05D801200D4977
:10A21000087000200A49087070470000280A0020D2
:10A2200004FA0120C862002074D20120C06200201C
:10A23000A4D80120AE640020C9620020C4620020BE
:10A24000AF640020AC6400200A4909489FED0B0A66
:10A25000086000F624010848016000210171012214
:10A260000273417380ED020A80ED040A704700001A
:10A2700044370120A8640020A4D801200000000079
:10A2800010B54C48007B28B9002210214A4800F044
:10A29000CEFF8EE04748407B00EE100AB8EE400A41
:10A2A0004648D0ED260AB4EEE00AF1EE10FA13D2D9
:10A2B0004348007888B9434890ED040A424880ED4D
:10A2C000000A012210213C4800F0B1FF01203C4966
:10A2D000087002203D4908706BE039480078012879
:10A2E00067D13A480078022823D101221021324850
:10A2F00000F09DFF334890ED040A3348D0ED000A8A
:10A3000030EE600A2D48D0ED270AB4EEE00AF1EEF7
:10A3100010FA4EDB00221021274800F088FF294860
:10A3200090ED040A284880ED000A032027490870B0
:10A330003FE02648007803283BD1224890ED040AEC
:10A340002148D0ED000A30EE600A1C48D0ED280A02
:10A35000B4EEE00AF1EE10FA2BDB1648407B401C0D
:10A36000144948730846407B00EE100AB8EE400AD4
:10A370001248D0ED260AB4EEE00AF1EE10FA12DB34
:10A380000020487308731248007801280BD10D484B
:10A3900090ED040A084680ED040A01200D4908707A
:10A3A00000200B4908700020054908700220074969
:10A3B000087010BDA4D801200008024004FA012052
:10A3C000BC62002074D20120B8620020BD6200206F
:10A3D000AE640020AF64002010B528480079B0B901
:10A3E00000222021264800F022FF2648007801287C
:10A3F00005D1254802F02AF90020224908700020E2
:10A4000022490870224908702249087034E0204827
:10A41000007840B901222021194800F008FF0120EE
:10A420001B49087028E01948007848B91A4890ED8F
:10A43000040A124880ED020A0120144908701BE04A
:10A44000154890ED040A0D48D0ED020AB2EE041A48
:10A4500070EE810AB4EEE00AF1EE10FA0CDB0F4860
:10A46000B0F85C2800F25C41074802F0BFFA012016
:10A47000044908700749087010BD0000A4D80120E5
:10A4800000080240B762002060D40120B4620020BE
:10A49000B5620020B662002074D201206065002001
:10A4A000002229B101291FD0022920D04FF4407287
:10A4B0000B2800D9001D0F490B6823F440730B6073
:10A4C0000B6813430B600A6822F0F8020A600A68FE
:10A4D000022303EBC00002430A60086840F48030A6
:10A4E0000860BFF34F8F70474FF48072E0E74FF47E
:10A4F0000072DDE7103C02400F4A136823F44073FA
:10A50000136003290FD00229116811D041F0040112
:10A51000116011684FF4803343EA00200143116059
:10A52000BFF34F8F7047116848F204031943EFE7F8
:10A5300041F40041ECE70000103C0240074A136878
:10A5400023F44073136013681360136843F001032E
:10A5500013600170BFF34F8F70470000103C024042
:10A56000094910B50C6824F440740C600C6844F47C
:10A5700040740C600C6844F001040C60026043609D
:10A58000BFF34F8F10BD0000103C0240084A136813
:10A5900023F440731360136843F4807313601368EB
:10A5A00043F0010313600180BFF34F8F7047000039
:10A5B000103C0240084A136823F440731360136888
:10A5C00043F400731360136843F0010313600160E8
:10A5D000BFF34F8F70470000103C024013490868DA
:10A5E0008207134803D5826942F0200282610A681B
:10A5F000D20603D5826942F0100282610A6892068F
:10A6000003D5826942F0080282610A68520603D5C6
:10A61000826942F0040282610A68120603D58269E7
:10A6200042F002028261F220086070470C3C024056
:10A6300000D60120124970B504460020886100F060
:10A64000FBFD104E054609E0601C07D024B100F068
:10A65000F3FD401BA04201D9032070BD3068C00348
:10A66000F2D4306810F0F20F03D0FFF7B7FF0120EB
:10A6700070BD3068C00701D001203060002070BD7F
:10A6800000D601200C3C024070B5B3F5804F05D0D8
:10A690006FF0704140F82210002070BD50F8223059
:10A6A000084C2340D1E900458E8944EA05148D68A1
:10A6B00089692D0245EA06452C430C431C4340F8AA
:10A6C0002240E9E70000F0CFF0B50C6850F82450C4
:10A6D0001A4A1540D1E90123D1E903671A433E43E1
:10A6E00032434E6932438E693243CE6932430E6A39
:10A6F00032434E6A32438E6A3243CE6A32430E6B25
:10A7000032438E6B32434E6B32432A43082B01D1C6
:10A7100042F0400240F824200A6BB2F5801F05D1B8
:10A720000A684AB1026842F4801202600A681AB1EB
:10A730000268496B0A4302600020F0BD8004C0FF3C
:10A7400000EB8202F0B553688E8903F04044D1E9F2
:10A75000003543EA05138D682D0245EA06450E8A49
:10A760002B430D4D05EB065633430E7D6F0107EB72
:10A77000066633438E693343234353600268D20233
:10A7800007D54268098A22F4700205EB0151114392
:10A7900041600020F0BD00000000F0FF02490020F1
:10A7A00081F8CA0070470000C0CF012070B50025B5
:10A7B0000026314890F85C443048007870BB30483F
:10A7C0000078502802D12F48047001E02C48047012
:10A7D0002B48007850284ED12A48007856284AD174
:10A7E0000120264908700020274908802448007865
:10A7F0002649087024480088401C234908802148C5
:10A8000000782249487020480088401C1E49088072
:10A8100000201B4908701B4908702CE01B481A498E
:10A820000988445418480088401C17490880084685
:10A830000088BC281FD10026002505E01348405D94
:10A840003044C6B2681CC5B2BA2DF7DB0F4890F889
:10A85000BB00B0420CD100200849087001200B4910
:10A8600081F8CA000A48D0F88C101320884702E00B
:10A8700000200249087070BD60650020546500200A
:10A88000586500205965002056650020C0CF012082
:10A89000106200202DE9F04F93B0044600250026F9
:10A8A000282108A8FDF700FD1C2101A8FDF7FCFCEC
:10A8B000607A217A40EA0120E17940EA0140A179F9
:10A8C00040EA016060490860607B217B40EA01202A
:10A8D000E17A40EA0140A17A40EA01605A494860C1
:10A8E000607C217C40EA0120E17B40EA0140A17BC1
:10A8F00040EA0160544988600DF1200B00BF19E067
:10A90000002513E0F0001230284414F800A0F000F5
:10A910001930401B215CF000123028442154F00013
:10A920001930401B04F800A0681C85B2042DE9DB37
:10A93000701C86B2052EE3DB04F11209002509E044
:10A9400099F800008BF800000BF1010B09F10109E7
:10A95000681C85B2282DF3DB9DED080B3A4880ED8D
:10A96000040B9DED0A0B80ED060B9DED0C0B80EDAD
:10A97000080B9DED0E0B80ED0A0B9DED100B80ED8D
:10A980000C0B01AF002619E0002513E0B0003A30AF
:10A99000284414F800A0B0003D30401B215CB000FA
:10A9A0003A3028442154B0003D30401B04F800A048
:10A9B000681C85B2022DE9DB701C86B2072EE3DB32
:10A9C00004F13A08002507E098F8000038707F1C71
:10A9D00008F10108681C85B21C2DF5DB9DED010A0C
:10A9E000194880ED0E0A9DED020A80ED0F0A9DEDDB
:10A9F000030A80ED100A9DED040A80ED110A9DED19
:10AA0000050A80ED120A9DED060A80ED130A9DED00
:10AA1000070A80ED140A14F8560F0B4981F8540008
:10AA2000607881F855006079217940EA2120E17849
:10AA300040EA2140A178563C40EA216002498865FD
:10AA400013B0BDE8F08F000060CF012010B5BC212D
:10AA50000148FFF71FFF10BDC0CF012070472DE94F
:10AA6000F041876D044600F0E7FB054694F8350099
:10AA70000026022806D080206065012084F834601A
:10AA8000BDE8F0812068016821F0160101602068AE
:10AA9000416921F080014161206C08B9A06C20B1AE
:10AAA0002068016821F0080101602068016821F038
:10AAB000010101600CE000F0BFFB401B052807D935
:10AAC0002020606584F83460032084F83500D7E7DF
:10AAD00020680068C007EED194F85C103F208840E1
:10AAE000B860012084F8346084F835000020C7E79E
:10AAF00090F83510022903D080214165012070476C
:10AB0000052180F835100068016821F0010101601D
:10AB100000207047406D70472DE9F84304466548B2
:10AB20004FF00009CDF800904FF41651A56D006864
:10AB3000B0FBF1F72E68082194F85C2001FA02F0CE
:10AB400030420FD02068026852070BD5026822F00D
:10AB50000402026094F85C008140A960606D40F0DE
:10AB60000100606594F85C104FF0010808FA01F0EC
:10AB7000304208D021684969090604D5A860606D93
:10AB800040F00200606594F85C1004208840304278
:10AB900008D021680968890704D5A860606D40F075
:10ABA0000400606594F85C1010208840304218D092
:10ABB00021680968090714D5A8602068016849035D
:10ABC00004D50068000308D5A16C07E00168C90539
:10ABD00003D4016821F008010160216C09B120460D
:10ABE000884794F85C1020208840304231D021689A
:10ABF0000968C9062DD5A86094F835000528206895
:10AC0000016806D0490347D5006800031DD4616C74
:10AC10001CE021F0160101602068416921F08001EB
:10AC20004161206C08B9A06C20B12068016821F056
:10AC30000801016094F85C103F208840A86084F807
:10AC4000349084F83580216D1FE0E16B09B1204616
:10AC50008847606D00282BD0606DC00714D0052098
:10AC600084F835002068016821F001010160009836
:10AC7000401C0090B84203D820680068C007F6D195
:10AC800084F8349084F83580E16C002910D001B04C
:10AC90002046BDE8F04308470168C905D5D40168DE
:10ACA00021F01001016084F8349084F83580CCE7FD
:10ACB000BDE8F883FC6100202DE9F041044600F076
:10ACC000BBFA05465CB1002684F83460022084F8A3
:10ACD00035002068016821F0010101600DE00120CC
:10ACE000BDE8F08100F0A8FA401B052805D9202016
:10ACF0006065032084F83500F2E720680068C0072B
:10AD0000F0D121680A6820480240D4E901031843C1
:10AD1000D4E903352B43184363691843A3691843E7
:10AD2000E3691843236A18431043626A042A03D173
:10AD3000D4E90B231A4310430860206840690127B7
:10AD4000656A20F0070128460D4304280CD1A06A4B
:10AD50000543E06A40B12046FEF744FB20B14020A5
:10AD6000606584F83570BAE7206845612046FEF7D3
:10AD700025FB94F85C203F2191408160666584F852
:10AD800035700020ACE700003F8010E02DE9F04175
:10AD9000866D044690F83400002501280DD001206E
:10ADA00084F8340094F835700020012F07D0022574
:10ADB00084F834002846BDE8F0810220FBE7022732
:10ADC00084F8357060652046FEF736FB94F85C1019
:10ADD0003F208840B0602068016841F016010160A2
:10ADE0002068416941F080014161206C20B12068F8
:10ADF000016841F0080101602068016841F001012B
:10AE00000160D7E770B5044600F016FA0546601CED
:10AE100002D004480078044400F00EFA401BA0421F
:10AE2000FAD370BDF06100202DE9F04704462048B8
:10AE30000E46017D012909D001214CF2503980468E
:10AE400001754846FFF7F6FB18B12CE00220BDE87B
:10AE5000F0874FF0FF3131602168164F012901D092
:10AE6000A5681BE0207C6168FFF746FB4846FFF7BA
:10AE7000E1FB396848F204029143396013E0217C18
:10AE80002846FFF70DFB4846FFF7D4FB396821F051
:10AE9000FA01396008B1356005E06D1CD4E9022182
:10AEA0001144A942EBD8002288F81420CFE7000013
:10AEB00000D60120103C02400348016841F00041E7
:10AEC0000160002070470000103C02402DE9F0476F
:10AED0001D4E044615461F468946307D012808D080
:10AEE00001204CF2503830754046FFF7A3FB18B1F3
:10AEF00026E00220BDE8F08734B1012C09D0022CF5
:10AF00000CD0032C14D10EE04846E9B2FFF716FB33
:10AF10000EE0A9B24846FFF739FB09E0294648464A
:10AF2000FFF748FB04E02A463B464846FFF718FB7C
:10AF30004046FFF77FFB05490A6822F001020A60DC
:10AF400000213175D6E7000000D60120103C0240F8
:10AF5000074900200A68002A09DA054A054B0C3A1D
:10AF60001360054B13600968002900DA012070475F
:10AF7000103C024023016745AB89EFCDF0B587B0A7
:10AF800014216846FDF790F92148016800293DD158
:10AF9000012101601F48016841F001010160006862
:10AFA00002240025694600F00100059003264CF2BA
:10AFB000B3700C278DE8F100174800F04BF840F211
:10AFC000CF6069468DE8F100144800F043F84FF473
:10AFD0007F4069468DE8F100114800F03BF84FF2E0
:10AFE0003F0069468DE8F1000E4800F033F8072075
:10AFF00069468DE8F1000C4800F02CF84FF680709F
:10B0000069468DE8F100094800F024F807B0F0BD6A
:10B01000E861002038380240000C02400020024065
:10B02000001C0240001402400018024000100240C0
:10B03000B0F5807F01D102F0BDBE7047044910B564
:10B040000A68024202D00860FFF7F2FF10BD00005C
:10B05000143C01402DE9F84FDFF894B100224FF085
:10B0600003094FF00F0A0BF1040E0B680125954000
:10B070002B40AB4272D14C68012C05D0022C03D07E
:10B08000112C01D0122C10D18668540009FA04F753
:10B09000BE43CF68A740374387604468AC430D790F
:10B0A000C5F30015954025434560C46857008E6878
:10B0B00009FA07F5AC43BE402643C6604C68022C33
:10B0C00001D0122C12D1D40800EB840CDCF82060E3
:10B0D0005407E40E0AFA04F826EA0806D1F81080AC
:10B0E00008FA04F848EA0608CCF820800468AC4363
:10B0F0000D7905F00305BD40254305604C68E4006B
:10B100006FD53C4C256845F480452560246822F0C5
:10B11000030504F480440094374C2E19D6F80878BF
:10B120009407250F0AFA05F4A743344CA04201D135
:10B1300000242EE0324CA04201D1012429E0314C00
:10B14000A04201D1022424E02F4CA04201D10324CB
:10B150001FE02E4CA04202D104241AE041E02C4C06
:10B16000A04201D1052414E02A4CA04201D10624BA
:10B170000FE0294CA04201D107240AE0274CA0424D
:10B1800001D1082405E0264CA04201D1092400E0A9
:10B190000A24AC403C43C6F80848DBF800405D4652
:10B1A0004E689C43F60300D51C432C60DEF800403B
:10B1B00075464E689C43B60300D51C432C600C4D6D
:10B1C00008352C684E689C43F60200D51C432C6061
:10B1D000074D0C352C684E689C43B60200D51C43C5
:10B1E0002C60521C102AFFF440AFBDE8F88F00001D
:10B1F000003C014044380240003001400000024061
:10B200000004024000080240000C0240001002400E
:10B210000014024000180240001C024000200240BE
:10B22000002402400069084000D0012070470AB1A4
:10B23000816170470904FBE701488068704700009E
:10B24000F0610020024881680278114481607047F3
:10B25000F0610020032010B500F0B8F8002000F0E5
:10B2600005F800F06DF8002010BD000070B50D4D20
:10B2700004464FF47A712878B1FBF0F00A49096866
:10B28000B1FBF0F000F063FE48B9102C07D20022A9
:10B290002146501E00F07AF800206C6070BD01203D
:10B2A00070BD0000F0610020FC610020134A41786D
:10B2B0001160111D03780A1DE3B143680B60017B27
:10B2C000C37A090741EA0361837A41EAC341437BB8
:10B2D00041EA8341837B41EA4341C37B41EA034125
:10B2E000437A41EA0321037A007841EA43010143AA
:10B2F00011607047002008601060704798ED00E012
:10B30000BFF35F8F0448016821F480310160024976
:10B31000002070310860704724ED00E0074940F0DC
:10B320000100086005487038016841F4803101600F
:10B33000BFF34F8FBFF36F8F7047000094ED00E0B5
:10B340000A4808B5016841F080510160006800F0CA
:10B35000805000900548001D016841F48041016063
:10B36000006800F48040009008BD000040380240B2
:10B37000002809DB012100F01F02914040098000F4
:10B3800000F1E020C0F80011704700000E4BF0B44F
:10B390001B68C3F30223C3F10704042C00D904245F
:10B3A0001D1D072D01D2002300E0DB1E012606FA39
:10B3B00004F56D1E0D409D409E40761E164045EAE8
:10B3C0000601F0BC09F067BD0CED00E0064A00F094
:10B3D000070110684FF6FF03184040EA01200349B7
:10B3E00008431060704700000CED00E00000FA0513
:10B3F0001848F8B5016841F0805101600068164DA9
:10B4000000F080500090286840F480302860FFF7FA
:10B4100013FF4FF47A76044604E0FFF70DFF001B9C
:10B42000B0420FD86868C003F7D5286840F40030F0
:10B430002860FFF701FF044606E0FFF7FDFE001B52
:10B44000B04201D90320F8BD68688003F5D500201B
:10B45000F8BD000040380240007000402DE9F84F70
:10B46000044600780026DFF820943546C0070ED049
:10B47000D9F8001021F40001C9F80010D9F8001023
:10B48000626B1143C9F80010606B00B90126206897
:10B49000FE4F00030ED53868E16B20F440100843DE
:10B4A0003860E06BB0F5801F01D010B102E00126DA
:10B4B00000E001252068C0020ED53868216C20F418
:10B4C000400008433860206CB0F5800F01D010B107
:10B4D00002E0012600E001252068C10100D5012617
:10B4E000800666D5E8483830016841F08051016037
:10B4F0000068DFF89CA300F080500090DAF800109C
:10B5000041F48071CAF80010FFF796FE804605E00E
:10B51000FFF792FEA0EB080064287DD8DAF800005F
:10B52000C005F5D5DFF864A3AAF11C0ADAF800001B
:10B5300010F440702AD0218E01F44071814225D050
:10B54000DAF80010DAF8002021F4407142F4803279
:10B55000CAF80020DAF8002022F48032CAF800206D
:10B56000CAF80010DAF80000C0070FD0FFF764FE39
:10B57000804641F2883B05E0FFF75EFEA0EB080144
:10B580005945CAD8DAF800008007F5D5206BC0F31A
:10B59000012103297ED0D9F8001021F4F811C9F84F
:10B5A0000010DAF80010228EC2F30B021143CAF821
:10B5B00000102078C00607D5386820F08070386009
:10B5C0003868A16B0843386020884104B14805D52C
:10B5D0000168626E21F44031114301602188090441
:10B5E00005D50168A26E21F4402111430160216854
:10B5F000C90305D50168E26E21F4401111430160D1
:10B600002168890305D50168226F21F440011143A7
:10B6100001602178490600E021E105D50168626CEE
:10B6200021F00301114301602178090605D5016865
:10B63000A26C21F00C01114301602188C90505D5D8
:10B640000168E26C21F03001114301602188890515
:10B6500005D50168226D21F0C001114301602188E8
:10B66000490505D50168626D21F4407111430160FF
:10B670002188090505D50168A26D21F440611143B7
:10B6800001602188C90407D50168E26D21F44051A9
:10B69000114300E05BE001602188890405D5016861
:10B6A000226E21F44041114301602168490205D511
:10B6B0000168A26F21F080611143016021684FF0A1
:10B6C0000069890209D50168E26F21F00061114328
:10B6D0000160E16F494500D1012521680A0700D5C5
:10B6E0000125490305D50168626F21F040711143BE
:10B6F00001602168090206D50168D4F8802021F094
:10B700008051114301602168490106D50168D4F8D0
:10B71000842021F00051114301602068000106D50A
:10B720003868D4F8881020F000700843386020682A
:10B73000C00006D53868D4F88C1020F0806008432B
:10B740003860DFF84481A8F1080876B909E0D9F833
:10B750000020514B22F4F81218400243C9F800208F
:10B760001FE72068B0F1007F78D1D8F8001021F0F1
:10B770008061C8F80010FFF75FFD064604E0FFF7A0
:10B780005BFD801B64286AD8D8F800000001F6D45D
:10B7900020784249C00711D0606B78B908680A6800
:10B7A000C0F301406368C2F303629B0143EA0040B7
:10B7B00040EA0260227A40EA0270086020680203D0
:10B7C00003D5E26BB2F5801F05D0C0021AD5206CFC
:10B7D000B0F5800F16D108680A68C0F301406368AD
:10B7E000C2F302729B0143EA0040237B40EA0360FC
:10B7F00040EA027008603868626A20F01F00521E3A
:10B80000104338602068C0010FD508680A68C0F38B
:10B8100003606368268AC2F302729B0143EA06430F
:10B8200043EA006040EA02700860206880010BD59E
:10B830006068228A800140EA0240227B40EA02607E
:10B84000227A40EA02700860D8F8001041F0806166
:10B85000C8F80010FFF7F0FC064606E009E083E0B8
:10B86000FFF7EAFC801B64287ED8D8F800000001AE
:10B87000F6D5E5B3D8F80000454620F08050C8F86A
:10B880000000FFF7D9FC0BE0083802408C3802407A
:10B890000070004090380240FFFCFF0F84380240E7
:10B8A000064604E0FFF7C8FC801B642867D82868B8
:10B8B000C0438000F6D520683549020301D5E26B0C
:10B8C0001AB1C0021DD5206CD8B908680A68C0F347
:10B8D00001406369C2F302729B0143EA0040237E88
:10B8E00040EA036040EA02700860386800E04DE01A
:10B8F000A26A6FF0FF0320F4F85003EB022210431A
:10B9000038602068800212D5E06F48450FD1086882
:10B910000A68C0F303606369268CC2F302729B015C
:10B9200043EA064343EA006040EA02700860207878
:10B93000000715D508680A68C0F303606369C2F39D
:10B9400001429B0143EA024242EA0060227F40EA50
:10B95000027008603868E16A20F4403008433860BB
:10B96000286840F0805000E009E02860FFF764FCA0
:10B97000044607E0FFF760FC001B642802D903209F
:10B98000BDE8F88F2868C0438000F3D40020F7E7B3
:10B99000883802402DE9F04704000D4669D0DFF8F1
:10B9A0001C81D8F8000000F00F00A8420CD2D8F893
:10B9B000001021F00F012943C8F80010D8F800004A
:10B9C00000F00F00A84254D120683D4E810712D5E7
:10B9D000400703D5306840F4E0503060207800071D
:10B9E00003D5306840F4604030603068A16820F0D2
:10B9F000F000084330602078C00729D030496068E3
:10BA00000839012810D00968022810D089070029B8
:10BA10002FDA316821F0030101433160FFF70CFC9C
:10BA2000074641F288390CE009688903EFE789018C
:10BA3000EDE7FFF701FCC11B494502D90320BDE832
:10BA4000F0873068616800F00C00B0EB810FF0D136
:10BA5000D8F80010404601F00F01A9420BD9016847
:10BA600021F00F0129430160006800F00F00A84297
:10BA700001D00120E3E72078400705D53068E16870
:10BA800020F4E050084330602078000706D5306885
:10BA9000216920F4604040EAC100306000F038F8CD
:10BAA0003168084AC1F30311515CC8400649086077
:10BAB00006480068FFF7DAFB0020C0E7003C0240C0
:10BAC000083802400C6F0108FC610020F46100207E
:10BAD0000448054900680968044AC1F38221515CA1
:10BAE000C8407047FC610020083802401C6F010804
:10BAF0000448054900680968044AC1F34231515CB1
:10BB0000C8407047FC610020083802401C6F0108E3
:10BB1000154810B5006810F00C01144813D0144BF0
:10BB200004290FD008290ED10F4C241F216801F0E1
:10BB30003F022168490207D52068C0F38810A0FBA6
:10BB4000030106E0184610BD2168C1F38811A1FB6E
:10BB500000010023FCF76CFB2168C1F30141491C83
:10BB60004900B0FBF1F010BD083802400024F40099
:10BB7000809698002DE9F84F04004FF0000877D028
:10BB80002078DFF864B3ABF10409C007A9F104051C
:10BB90004AD0DBF800105846C1F38101012908D0D2
:10BBA0000068C0F3810002280AD1D9F800004002E1
:10BBB00006D52868800337D560680028DFD033E0D9
:10BBC0006068B0F5803F0BD010B1B0F5A02F11D058
:10BBD000286820F480302860286820F4802002E063
:10BBE000286840F480302860606888B1FFF724FB43
:10BBF000064609E0286840F480202860F0E7FFF757
:10BC00001BFB801B642873D828688003F7D50BE0E2
:10BC1000FFF712FB064604E0FFF70EFB801B6428CB
:10BC2000F1D828688003F7D42078800740D5DBF866
:10BC30000010584611F00C0F08D00068C0F38100C6
:10BC400002280AD1D9F80000400206D428688007EB
:10BC500017D5E06801280BD113E0E06800282868B8
:10BC600017D040F001002860FFF7E6FA064605E02D
:10BC700035E1FFF7E1FA801B0228C4D82868800765
:10BC8000F7D52868216920F0F80040EAC100286053
:10BC90000EE020F001002860FFF7CEFA064604E02F
:10BCA000FFF7CAFA801B022822D828688007F7D439
:10BCB0002078000725D58C4F60696C3700283868DC
:10BCC0000FD040F001003860FFF7B6FA064604E0F6
:10BCD000FFF7B2FA801B02280AD838688007F7D528
:10BCE0000FE020F001003860FFF7A6FA064605E0F5
:10BCF00082E0FFF7A1FA801B02287DD83868800710
:10BD0000F7D42078400769D5DFF8DCA10AF1380ABA
:10BD1000DAF80000C0000CD4DAF8001041F08051CD
:10BD2000CAF80010DAF800004FF0010800F0805067
:10BD300000906E4F3868C0050FD4386840F48070AA
:10BD40003860FFF779FA064604E0FFF775FA801BC2
:10BD5000642851D83868C005F7D5634FA0686837A4
:10BD600001280AD008B1052811D0386820F0010058
:10BD70003860386820F0040002E0386840F00100C4
:10BD80003860A06898B1FFF757FA06460BE03868AC
:10BD900040F004003860F0E7FFF74EFA811B41F2F3
:10BDA0008830814267D838688007F5D50DE0FFF705
:10BDB00043FA064606E0FFF73FFA811B41F288305E
:10BDC000814258D838688007F5D4B8F1000F05D003
:10BDD000DAF8001021F08051CAF80010A169D9B337
:10BDE000DBF80000C0F3810002284BD0286802294C
:10BDF00020F08070286000E03DE003D0FFF71CFADF
:10BE000004463BE0FFF718FA064604E0FFF714FA91
:10BE1000801B02282FD828688001F7D4D4E90701B5
:10BE2000334A0843A16A490802EB0141626A41EAC8
:10BE30008211084394F82C1040EA016094F8301005
:10BE400040EA0171C9F80010286840F0807028604D
:10BE5000FFF7F2F9044605E043E0FFF7EDF9001BB8
:10BE6000022808D828688001F7D53AE0FFF7E4F9FE
:10BE7000001B022802D90320BDE8F88F2868800142
:10BE8000F4D42EE0D9F80000012928D0E26900F4AA
:10BE90008001914223D1226A00F03F0191421ED1DC
:10BEA000626A47F6C0710140B1EB821F17D1A26AE6
:10BEB0004FF0FF3300F4403103EB5202B1EB024F7D
:10BEC0000DD194F82C2000F07061B1EB026F06D117
:10BED00094F8301000F0E040B0EB017F01D0012079
:10BEE000CAE70020C8E700000838024000700040A0
:10BEF0000000FFFF70B5040015460E4603D094F80D
:10BF0000450010B107E0012070BD002084F8440016
:10BF1000204600F01AF8206804F10801FEF7D4FB6F
:10BF2000A26831462068FEF70BFCE36A2946D4E993
:10BF30000102FEF7A9FBA168206850F8212042F019
:10BF4000010240F82120002070BDFFF717B8401E05
:10BF5000B0F1807F10B501D3012010BD4FF0E02477
:10BF600060610F21601708F096FF0020A061072094
:10BF70002061002010BD70477047704730B590F8C1
:10BF80003C20012A3AD0012280F83C20CA680024D3
:10BF90008B6822F440721A4D1A434B6822F4806277
:10BFA0001A430B6822F400621A430B6922F4805290
:10BFB0001A434B6922F400521A438B6A22F48042DE
:10BFC0001A430B8B22F4702242EA03420368AB420D
:10BFD00002D00C4DAB420CD18D8C22F4700242EA9F
:10BFE0000552CD6922F08072096A2A4322F000725C
:10BFF0000A435A6480F83C40002030BD022030BD26
:10C000000000014000040140F0B590F83C20012AF6
:10C010003CD0012580F83C50022280F83D20036886
:10C020005A689C681A4E1B4FB34201D0BB4204D1E0
:10C0300022F4700C4A6842EA0C0222F0700C0A6882
:10C0400042EA0C025A600268B24213D0B2F1804F49
:10C0500010D0114B9A420DD0104B9A420AD0104B7F
:10C060009A4207D0BA4205D00E4B9A4202D00E4BEC
:10C070009A4204D1896824F080031943916080F8C2
:10C080003D50002180F83C100846F0BD0220F0BD74
:10C09000000001400004014000040040000800408E
:10C0A000000C0040004001400018004010B50400A2
:10C0B00003D094F83D0010B107E0012010BD00202E
:10C0C00084F83C00204600F00DF8022084F83D0082
:10C0D0002068211D07F052FA012084F83D0000205D
:10C0E00010BD000008B500681749884208D11748FC
:10C0F000016841F001010160006800F001000BE0FF
:10C100001249134A091F904208D1086840F0020002
:10C110000860086800F00200009008BD0D4A9042D7
:10C1200007D1086840F008000860086800F00800BF
:10C13000F2E7094A9042F0D1086840F01000086028
:10C14000086800F01000E7E70000014044380240B2
:10C1500000040040000C004000100040022180F864
:10C160003D1002689168084B1940062906D0B1F5C8
:10C17000803F03D0116841F001011160012180F876
:10C180003D10002070470000070001000168CA68E8
:10C1900042F00102CA6001688868064A1040062819
:10C1A00006D0B0F5803F03D0086840F00100086079
:10C1B000002070470700010070B5044690F83C006D
:10C1C000012817D0012584F83C50022084F83D0056
:10C1D000206882682E4B1A4022F47F4282600868F1
:10C1E000502830D00DDC20284DD005DC98B3102825
:10C1F0003BD148E0022070BD302844D0402834D1E3
:10C2000039E0602828D0702806D0B0F5805F2CD0A7
:10C21000B0F5005F29D10AE04A682068D1E902132D
:10C2200007F01DFA2068816841F0770109E04A684B
:10C230002068D1E9021307F012FA2068816841F4FE
:10C240008041816011E0CA684968206807F03EFBC0
:10C250002068502107E016E0CA684968206807F0A6
:10C2600046FB2068602107F004FA84F83D50002066
:10C2700084F83C0070BDCA684968206807F026FB56
:10C2800020684021EFE7226801461046EBE70000F6
:10C2900088FFFEFF704770B50446006801694FF0E3
:10C2A0000005C943890715D4C168C943890711D45A
:10C2B000E91E0161012020772068806980072046FF
:10C2C00002D0FFF7E7FF04E000F0D2F8204600F0CC
:10C2D00080F9257720680169C943490717D4C168E7
:10C2E000C943490713D46FF004010161022020778C
:10C2F0002068806910F4407F204602D0FFF7CAFF13
:10C3000004E000F0B5F8204600F063F925772068D6
:10C310000169C943090716D4C168C943090712D482
:10C320006FF008010161042020772068C069800750
:10C33000204602D0FFF7AEFF04E000F099F8204657
:10C3400000F047F9257720680169C943C90617D469
:10C35000C168C943C90613D46FF0100101610820F8
:10C3600020772068C06910F4407F204602D0FFF794
:10C3700091FF04E000F07CF8204600F02AF92577D0
:10C3800020680169C943C90708D1C168C943C90701
:10C3900004D1891E0161204600F042F9206801693C
:10C3A000C943090609D4C168C943090605D46FF019
:10C3B000800101612046FFF7DFFD20680169C94364
:10C3C000C90509D4C168C943090605D46FF4807151
:10C3D00001612046FFF7CFFD20680169C943490686
:10C3E00009D4C168C943490605D46FF04001016111
:10C3F000204600F029F920680169C94389060BD459
:10C40000C168C943890607D46FF020010161204645
:10C41000BDE87040FFF7B1BD70BD000010B586B03B
:10C42000044614216846FBF73FFF0E492068884206
:10C4300016D10D48016841F00101016000686946AC
:10C4400000F0010005904FF4007000900220019070
:10C45000002002900390012004900448FEF7FAFDAA
:10C4600006B010BD0000014030380240000002401C
:10C47000704770B5044690F83C000D4601280ED078
:10C48000012684F83C60022084F83D000C2A45D047
:10C4900007DC5AB1042A1BD0082A78D12CE00220EC
:10C4A00070BD102A4ED0142A71D15DE0206807F0CB
:10C4B000E9F82068816941F008018161206881699B
:10C4C00021F004018161206881692A69114311E02A
:10C4D000206807F00BF92068816941F400618161EF
:10C4E0002068816921F480618161206881692A69FD
:10C4F00041EA022181614AE0206807F031F92068B1
:10C50000C16941F00801C1612068C16921F00401DD
:10C51000C1612068C1692A69114311E0206807F0F0
:10C5200057F92068C16941F40061C1612068C1699F
:10C5300021F48061C1612068C1692A6941EA022150
:10C54000C16124E0206807F06FF92068416D41F077
:10C55000080141652068416D21F0040141652068B2
:10C56000416D2A69114311E0206807F085F92068C0
:10C57000416D41F4006141652068416D21F48061A5
:10C5800041652068416D2A6941EA0221416584F8CC
:10C590003D60002084F83C0070BD10B5040003D05D
:10C5A00094F83D0010B107E0012010BD002084F890
:10C5B0003C00204600F00CF8022084F83D00206882
:10C5C000211D06F0DBFF012084F83D00002010BD96
:10C5D0007047704710B501220446006807F032F832
:10C5E0000C482168814202D00B48814203D1486C3B
:10C5F00040F40040486421688868084A10400628D2
:10C6000006D0B0F5803F03D0086840F00100086014
:10C61000002010BD0000014000040140070001009F
:10C62000064A0749904201D1086C04E0054A90424D
:10C6300002D1D1F8840000477047000020D30120C8
:10C64000D86D0020A0D301207047704770B5416FAE
:10C650000446856F006882684FF01006120612D5F6
:10C66000212910D1816821F080018160A06E38B14C
:10C67000FEF7F5F920B1A06EFEF74CFA20281BD08A
:10C68000204608F07CF920688168490612D5222DE1
:10C6900010D1816821F040018160E06E38B1FEF771
:10C6A000DEF920B1E06EFEF735FA202804D02046EE
:10C6B00008F056F9002070BDE667032070BD704792
:10C6C0002DE9F04102680446D0691168936840F68C
:10C6D0000F0528424FF0000505D186067BD58E0652
:10C6E00079D5216E87E003F0010601F49077374396
:10C6F00071D0C70707D0CF0505D501271762E26FB4
:10C7000042F00102E267820708D5DA0706D02768FF
:10C7100002223A62E26F42F00402E267420708D561
:10C72000DA0706D0236804221A62E26F42F002029E
:10C73000E26702070AD501F02002324306D02368DF
:10C7400008221A62E26F42F00802E267020509D588
:10C750004A0107D523684FF400621A62E26F42F083
:10C760002002E267E26F002A2ED0800605D58806F7
:10C7700003D5216E09B120468847E06F216889689A
:10C78000490602D410F0280F20D0204608F0E8F81F
:10C7900020688168490614D5816821F040018160D4
:10C7A000E06E70B11D490165E06EFEF7A1F9002849
:10C7B0000AD0E06E016D00E02046BDE8F041084778
:10C7C00009E02046FFF77BFFBDE8F0812046FFF738
:10C7D00076FFE567F8E7C60208D55B0206D54FF499
:10C7E000801010622046FFF730FFEDE7030605D505
:10C7F0000B0603D5616E0029DED1E5E74006E3D5DF
:10C800004806E1D51168204621F040011160202141
:10C810006167656600F092F9D6E700008548010877
:10C8200010B5040002D0606F10B107E0012010BD08
:10C83000002084F87000204600F026F8242060676D
:10C840002068016821F001010160204608F0A0F88D
:10C850000128ECD0606A10B1204607F083FF206801
:10C86000416821F4904141602068816821F02A01EB
:10C8700081602068016841F0010101602046BDE847
:10C88000104007F0D3BF00002DE9F04F87B00446F9
:10C8900014216846FBF708FD4C4A03262068072749
:10C8A0004B49002590424FF002084FF4807B4FF037
:10C8B00000694FF4806A49D145481430026842F05B
:10C8C00010020260006800F010000590086840F057
:10C8D00002000860086802AA694600F0020005909C
:10C8E000C020CDE9000882E8E0003A48FEF7B2FB3C
:10C8F0003A4E57463848C846E6E80209402086E8DE
:10C90000A100F56035617561B5613448F561083E97
:10C91000FEF7D2F908B1FDF75DFBA6662E48B463B9
:10C920002E4E7838603630604FF44030C6E90185CD
:10C93000C6E903577561C6E9065BC6E908053046D6
:10C940003DE0E666B46307B0BDE8F08F244A90424C
:10C95000F9D11F481030026842F4003202600068CA
:10C9600000F400300590086840F001000860086895
:10C9700001AA694600F001000590042000901220F1
:10C9800082E8E1001748FEF765FB0820694602AA25
:10C99000CDE90008134882E8E000FEF75BFB0F4E8C
:10C9A0001148C03630604FF40030C6E90195C6E941
:10C9B000035A7561C6E9065BC6E908053046FEF70D
:10C9C0007BF90028BDD0FDF705FBBAE70010014058
:10C9D0003038024000040240B8640240E0D4012034
:10C9E00000440040000002408860024070B50446E8
:10C9F000806F20283FD149B342B394F870000128DA
:10CA000039D0012084F8700061650025A4F8582011
:10CA1000E5672220A067E06ED0B118491346C163D4
:10CA2000E16E17480864E16E1648C864E06E05655B
:10CA3000666D2168E06E32462431FEF7A7F938B101
:10CA40001020E06784F8705020206067012070BDDE
:10CA500084F870502068016841F48071016020689A
:10CA6000816841F0010181602068816841F04001E6
:10CA70008160002070BD022070BD0000E148010807
:10CA80001D490108994801080549884201D101F072
:10CA900061BA0449884201D101F0ACBB7047000083
:10CAA000E0D3012060D401207047000070B5044637
:10CAB000406F20283AD159B352B394F8700001283E
:10CAC00034D0012084F87000E164A4F85020A4F868
:10CAD00052200025E56721206067A06ED0B114497F
:10CAE0001346C163A16E13480864A16E1248C8645E
:10CAF000A06E05652668E16CA06E06F12802FEF7BF
:10CB000045F938B11020E06784F870502020606744
:10CB1000012070BD21684020086284F870502068B0
:10CB2000816841F080018160002070BD022070BDED
:10CB30002749010857490108994801080E4B01226D
:10CB40000E4998420BD1806E0068036823F0010300
:10CB50000360002081F8332481F834047047084BC7
:10CB60009842FBD1806E0068036823F001030360E4
:10CB700081F86F2870470000E0D301206065002035
:10CB800060D401207047FEE710B500241348006808
:10CB9000C069C0F30010F8B9102010490968086294
:10CBA0000E48FFF753FD0D48C06E006844680C48FE
:10CBB000B0F82004001B401E0949A1F830040120F0
:10CBC00081F8320401F0C6F90548B0F8202400F1DC
:10CBD00020010248FFF70AFF10BD0000E0D301204A
:10CBE0006065002010B513480068C069C0F30010EC
:10CBF000F8B910200F49096808620E48FFF726FDB2
:10CC00000C48C06E006844680B48B0F85C08001B14
:10CC100081B20948A0F86C18012180F86E1801F063
:10CC2000E9FA0548B0F85C2800F25C410148FFF7DA
:10CC3000DDFE10BD60D40120606500200448064977
:10CC4000B2EE040A80ED0A0A02480860704700004C
:10CC50005C6300201C680120CC62002070B52DEDC3
:10CC6000048B04460D469FED1B0AB0EE408A1A481D
:10CC700001220321036A20469847B0EE408A94EDD2
:10CC8000022AB1EE422AB7EEC22AB0EE421B94ED60
:10CC9000012AB1EE422AB7EEC22AB0EE420B08F0EA
:10CCA0000FFBB7EEC00B85ED000A94ED000AC0EE55
:10CCB000080AB7EEE00AB0EE409B08F0FDF8B7EEC8
:10CCC000C00B85ED010A9FED030A85ED020ABDEC5C
:10CCD000048B70BD00000000F064002070B52DEDE5
:10CCE000088B06460D4614469FED540AB0EE408A66
:10CCF0009FED520AF0EE408A9FED500AB0EE409A46
:10CD00004F4801220321036A30469847B0EE408A1B
:10CD100096ED022AB1EE422AB7EEC22AB0EE421BCD
:10CD200096ED012AB1EE422AB7EEC22AB0EE420BCE
:10CD300008F0C6FAB7EEC00B84ED000A96ED000AC3
:10CD4000C0EE080AB7EEE00AB0EE40AB08F0B4F867
:10CD5000B7EEC00B84ED010A94ED001AB7EEC11ACC
:10CD6000B0EE410B08F08CFB95ED011AB7EEC11A3D
:10CD700020EE01AB94ED001AB7EEC11AB0EE410BF4
:10CD800008F0D6FB95ED021AB7EEC11A01EE40ABE2
:10CD9000B1EE4A0BB7EEC00BF0EE408A94ED011AEB
:10CDA000B7EEC11AB0EE410B08F06AFB95ED001A20
:10CDB000B7EEC11A20EE01AB94ED011AB7EEC11A1D
:10CDC000B0EE410B08F0B4FB95ED011AB7EEC11AB5
:10CDD00020EE01BB94ED001AB7EEC11AB0EE410B84
:10CDE00008F0A6FB0BEE00AB94ED011AB7EEC11AEA
:10CDF000B0EE410B08F09CFB95ED021AB7EEC11A9C
:10CE000020EE01BB94ED001AB7EEC11AB0EE410B53
:10CE100008F08EFB0BEE00ABB7EECA0BB0EE409AFB
:10CE2000B7EEC91AB7EEE80A08F04AFAB7EEC00B37
:10CE300084ED020ABDEC088B70BD0000000000000C
:10CE4000F06400207047704710B50249C87C00F0BC
:10CE5000A5FD10BDD85700202DE9FE4F05460E4612
:10CE600014461F46DDE90D9ADDF8308065B900F003
:10CE700045FD87ED000A3B462246314628468DE8AF
:10CE8000000700F07BF873E0012D71D100F036FD52
:10CE90003848B0F8FC00401E07EB800080ED000A27
:10CEA00094ED000A3348B0F8FC0000EB4000314933
:10CEB00001EB800080ED000A94ED010A0846B0F80D
:10CEC000FC0000EB400001EB800080ED010A94EDD6
:10CED000020A0846B0F8FC0000EB400001EB8000BD
:10CEE00080ED020A0846B0F8FC00401CA1F8FC00E6
:10CEF000084690ED400AF7EE000AB4EE600AF1EE43
:10CF000010FA10D1B0F8FC00B0421AD10120A1F8FB
:10CF1000FC00B7EE000A084680ED410A9FED160AB4
:10CF200080ED400A0DE01348B0F8FC00B04208D193
:10CF300001201049A1F8FC00B7EE000A084680ED78
:10CF4000410A0C4890ED410AF7EE000AB4EE600A7F
:10CF5000F1EE10FA0CD13B462246314628468DE8C8
:10CF6000000700F00BF89FED040A024880ED410A2B
:10CF7000BDE8FE8F90630020000000002DE9F04F17
:10CF80002DED068B87B08046894617461E46DDE9A3
:10CF900017AB169C002500200490059006909FED8D
:10CFA000FE0AF0EE408A9FEDFC0AB0EE409A9FED3B
:10CFB000FA0AF0EE409A9FEDF80AB0EE408A97ED3B
:10CFC000000AB5EEC00AF1EE10FA01D0012000E02F
:10CFD000002097ED010AB5EEC00AF1EE10FA01D07B
:10CFE000012100E00021084397ED020AB5EEC00AD6
:10CFF000F1EE10FA01D0012100E0002108430028E1
:10D000007DD0B8F1000F13D100250EE007EB8500AD
:10D0100090ED000AD6ED000A20EE200A04A800EBED
:10D02000850080ED000A681C85B2032DEEDB64E309
:10D03000B8F1010FFBD19FEDD80AB0EE408A4D4602
:10D0400009E006EB850090ED000A30EE080AB0EE2C
:10D05000408A681E85B2002DF3DCB9F1030F7CD045
:10D06000B9F1050F7AD19FEDCD0AC8EE000ACC4880
:10D0700090ED030AB1EE0C1A20EE010A90ED061AAB
:10D08000DFEDC81A01EE810A90ED091AF2EE081AD6
:10D0900001EE810A90ED0C1ADFEDC21A01EE810A51
:10D0A00090ED0F1AF1EE0C1A01EE810A20EE800AC3
:10D0B00080ED3C0A9FEDB90AC8EE000A90ED040A23
:10D0C000B1EE0C1A20EE010A90ED071ADFEDB51A49
:10D0D00001EE810A90ED0A1AF2EE081A01EE810AB9
:10D0E00090ED0D1ADFEDAF1A01EE810A90ED101AE6
:10D0F000F1EE0C1A01EE810A20EE800A00E08EE3C8
:10D1000080ED3D0A9FEDA50AC8EE000A90ED050AE4
:10D11000B1EE0C1A20EE010A90ED081ADFEDA11A0B
:10D1200001EE810A90ED0B1AF2EE081A01EE810A67
:10D1300090ED0E1ADFED9B1A01EE810A90ED111AA7
:10D14000F1EE0C1A01EE810A20EE800A80ED3E0A13
:10D1500090ED0D0AD0ED110A01E08CE1CBE220EE5A
:10D16000200AD0ED100A90ED0E1A00EEC10A80EDF3
:10D170001E0A90ED0E0AD0ED0F0A20EE200AD0ED27
:10D18000110A90ED0C1A00EEC10A80ED1F0A90ED15
:10D190000C0AD0ED100A20EE200AD0ED0F0A90ED17
:10D1A0000D1A00EEC10A80ED200A90ED0A0AD0EDBA
:10D1B000110A20EE200AD0ED100A90ED0B1A00EEB5
:10D1C000C10A80ED210A90ED0B0AD0ED0F0A20EE86
:10D1D000200AD0ED110A90ED091A00EEC10A80ED87
:10D1E000220A90ED090AD0ED100A20EE200AD0EDB7
:10D1F0000F0A90ED0A1A00EEC10A80ED230A90EDA5
:10D20000070AD0ED110A20EE200AD0ED100A90EDA9
:10D21000081A00EEC10A80ED240A90ED080AD0ED4C
:10D220000F0A20EE200AD0ED110A90ED061A00EE4A
:10D23000C10A80ED250A90ED060AD0ED100A20EE15
:10D24000200AD0ED0F0A90ED071A00EEC10A80ED1A
:10D25000260A90ED040AD0ED110A20EE200AD0ED46
:10D26000100A90ED051A00EEC10A80ED270A90ED34
:10D27000050AD0ED0F0A20EE200AD0ED110A90ED3C
:10D28000031A00EEC10A80ED280A90ED030AD0EDE2
:10D29000100A20EE200AD0ED0F0A90ED041A00EEDD
:10D2A000C10A80ED290A90ED010AD0ED110A20EEA5
:10D2B000200AD0ED100A90ED021A00EEC10A80EDAE
:10D2C0002A0A90ED020AD0ED0F0A20EE200AD0EDD6
:10D2D000110A90ED001A00EEC10A80ED2B0A90EDC4
:10D2E000000AD0ED100A20EE200AD0ED0F0A90EDD2
:10D2F000011A00EEC10A80ED2C0A90ED1E0ADFED46
:10D300002A0A20EE200AD0ED210A9FED281A01EE0C
:10D31000200AD0ED240A9FED261A01EE200AD0ED56
:10D32000270A9FED241A01EE200AD0ED2A0A9FED6C
:10D33000221A01EE200A20EE080A60EE080A90ED9B
:10D340003C0A9FED1E1A00EE810A8DED040A90ED55
:10D350001F0ADFED150A20EE200AD0ED220A9FED0C
:10D36000131A01EE200AD0ED250A9FED111A01EEE5
:10D37000200AD0ED280A9FED0F1A01EE200AD0ED09
:10D380002B0A9FED0D1A01EE200A20EE080A60EE2E
:10D39000080A90ED3D0A13E0000000000000B442CE
:10D3A0009063002000000042F5F2E73FE833623F5F
:10D3B000BAF8093FB5910F3DC4271FBA0000803D60
:10D3C0001FED021A00EE810A8DED050A90ED200A8C
:10D3D0005FED0B0A20EE200AD0ED230A1FED0D1A97
:10D3E00001EE200AD0ED260A1FED0F1A01EE200AE9
:10D3F000D0ED290A1FED111A01EE200AD0ED2C0AFA
:10D400001FED131A01EE200A20EE080A60EE080A4A
:10D4100090ED3E0A1FED171A00EE810A8DED060A07
:10D4200096ED000AFE48407D06EB800080ED000A84
:10D43000FB48407D00EB4000FA4901EB800090ED95
:10D44000000A084680ED000AF548407D00EB4000E8
:10D4500001EB800090ED010A084680ED010AF048DA
:10D46000407D00EB400001EB800090ED020A084691
:10D4700080ED020A40E1B1EE080AC8EE000AE94870
:10D4800090ED030A90ED061AF1EE001A01EE810A02
:10D4900090ED091A30EE010A20EE800A80ED3C0A78
:10D4A000B1EE080AC8EE000A90ED040A90ED071AE2
:10D4B000F1EE001A01EE810A90ED0A1A30EE010A2F
:10D4C00020EE800A80ED3D0AB1EE080AC8EE000A9F
:10D4D00090ED050A90ED081AF1EE001A01EE810AAE
:10D4E00090ED0B1A30EE010A20EE800A80ED3E0A24
:10D4F00090ED070AD0ED0B0A20EE200AD0ED0A0AC3
:10D5000090ED081A00EEC10A80ED1E0A90ED080A9F
:10D51000D0ED090A20EE200AD0ED0B0A90ED061A94
:10D5200000EEC10A80ED1F0A90ED060AD0ED0A0A4E
:10D5300020EE200AD0ED090A90ED071A00EEC10A8C
:10D5400080ED200A90ED040AD0ED0B0A20EE200AAF
:10D55000D0ED0A0A90ED051A00EEC10A80ED210A0D
:10D5600090ED050AD0ED090A20EE200AD0ED0B0A55
:10D5700090ED031A00EEC10A80ED220A90ED030A35
:10D58000D0ED0A0A20EE200AD0ED090A90ED041A27
:10D5900000EEC10A80ED230A90ED010AD0ED0B0ADE
:10D5A00020EE200AD0ED0A0A90ED021A00EEC10A20
:10D5B00080ED240A90ED020AD0ED090A20EE200A3F
:10D5C000D0ED0B0A90ED001A00EEC10A80ED250A9D
:10D5D00090ED000AD0ED0A0A20EE200AD0ED090AEB
:10D5E00090ED011A00EEC10A80ED260A90ED1E0AA8
:10D5F000DFED8D0A20EE200AD0ED210A9FED8B1A77
:10D6000001EE200AD0ED240A9FED891A01EE200ACE
:10D6100020EE080A60EE080A90ED3C0AB5EE001A0A
:10D6200000EE810A8DED040A90ED1F0ADFED7E0AFF
:10D6300020EE200AD0ED220A9FED7C1A01EE200A8E
:10D64000D0ED250A9FED7A1A01EE200A20EE080A95
:10D6500060EE080A90ED3D0AB5EE001A00EE810A70
:10D660008DED050A90ED200ADFED6F0A20EE200A0D
:10D67000D0ED230A9FED6D1A01EE200AD0ED260AA7
:10D680009FED6B1A01EE200A20EE080A60EE080AF0
:10D6900090ED3E0AB5EE001A00EE810A8DED060A05
:10D6A00096ED000A5E48407D06EB800080ED000AA2
:10D6B0005B48407D00EB40005A4901EB800090ED53
:10D6C000000A084680ED000A5548407D00EB400006
:10D6D00001EB800090ED010A084680ED010A5048F8
:10D6E000407D00EB400001EB800090ED020A08460F
:10D6F00080ED020A00E000BF00BF4E480122032176
:10D70000036A04A89847B0EE40AA09F0D5FBF0EEF2
:10D71000408AB0EE000AC8EE800AB7EEE00AB0EE2A
:10D7200040AB07F0ADFEB7EEC00BB0EE409AB0EEE6
:10D73000000AC8EE800AB7EEE00AB0EE40AB07F090
:10D74000F7FEB7EEE81A80EE012BB7EEC20BF0EE53
:10D75000409AF5EEC08AF1EE10FA60D09DED060A0F
:10D76000D4ED010A20EE200ADDED050A94ED021A3F
:10D7700000EEC10ADDED040A94ED031A00EE810A01
:10D7800020EE290AD4ED000A09EE200A8DED000AE8
:10D790009DED060AB1EE400AD4ED000A20EE200A03
:10D7A000DDED040A94ED021A00EE810ADDED050AB2
:10D7B00094ED031A00EE810A20EE290AD4ED010A45
:10D7C00009EE200A8DED010A9DED050AD4ED000A4F
:10D7D00020EE200ADDED040A94ED011A00EEC10AE4
:10D7E000DDED060A94ED031A00EE810A20EE290A07
:10D7F000D4ED020A09EE200A8DED020A9DED040A1D
:10D80000B1EE400AD4ED000A20EE200ADDED050A53
:10D8100094ED011A00EEC10ADDED060A0CE034E0D9
:10D82000D8570020906300201552213F2108823CE8
:10D83000040DD03AF064002094ED021A00EEC10A03
:10D8400020EE290AD4ED030A09EE200A8DED030A21
:10D85000144801220421036A68469847B0EE40AAA2
:10D8600009F02AFBF0EE408A00250CE0684600EB48
:10D87000850090ED000AC0EE280A04EB8500C0ED9B
:10D88000000A681C85B2042DF0DB5146204608F0E2
:10D8900073FF5946504609F00BF907B0BDEC068BF3
:10D8A000BDE8F08FF0640020FEB51048104BA0F1E9
:10D8B00034010C1FA0F110020092CDE90110E56EB9
:10D8C000022100200B4AA847256F201D04F15002B9
:10D8D000074B09491646A847636F03B004F144019A
:10D8E0003046034ABDE8F0401847000004630020BA
:10D8F0005C630020E8D80120F0D901209FED200AC8
:10D90000F0EE400A1F48006800EE100AB8EE400A28
:10D91000F0EE400A1C4890ED000AF4EEC00AF1EE69
:10D9200010FA0FD290ED000A9FED181A31EE400A5E
:10D9300030EE200A9FED161AC0EE011A1548C0ED10
:10D94000001A0BE0104890ED000A30EEC00A9FED7F
:10D95000101AC0EE011A0F48C0ED001A0E4890EDE3
:10D96000030A0C4890ED001A20EE010A80ED000A2F
:10D970000548C0ED000A074890ED000A7047000016
:10D9800000000000240C00408C63002000FF7F4753
:10D990000024744988630020D857002010B52DED6D
:10D9A000028B04469FED320AB0EE408A052C56D217
:10D9B000DFE804F00325484E54002E492E48FFF7B7
:10D9C0004DF92C4934392B4808F082FD294910398A
:10D9D000A1F1240009F0E8F89FED250A2548383820
:10D9E00080ED130A80ED120A80ED110A9FED200AE6
:10D9F00080ED160A80ED150A80ED140A30E01D4A0C
:10DA00001E491D48FFF76AF91A493439194808F0C8
:10DA10005FFD18491039A1F1240009F0C5F89FED08
:10DA2000140A1448383880ED130A80ED120A80ED8C
:10DA3000110A9FED0F0A80ED160A80ED150A80EDA0
:10DA4000140A0DE00B4938390868FFF7FCF907E0C4
:10DA5000084938390868FFF7F5F901E000E000BF30
:10DA600000BFFFF74BFFB0EE408ABDEC028B10BD4C
:10DA70000000000004630020F0D90120F8DA012042
:10DA800021489FED220A2449D0EDD30A214820EEF7
:10DA9000801ADFED1F0AC1EE201AC0ED001A91EDC9
:10DAA000A71A01F5806121EE001AC1EE201AC0ED1F
:10DAB000011A91ED7B1A01F5806121EE000A80EEDA
:10DAC000201A80ED021A91ED4F0A01F5806180ED78
:10DAD000420A91ED230A80ED430A91EDF70A01F520
